:100000000C946F000C948C000C948C000C94AF0535
:100010000C948C000C948C000C948C000C94E505D2
:100020000C948C000C948C000C948C000C948C0020
:100030000C948C000C948C000C948C000C948C0010
:100040000C948C000C948C000C948C000C948C0000
:100050000C948C000C948C000C948C00076342363A
:10006000B79BD8A71A39685618AEBAAB558C1D3C49
:10007000B7CC5763BD6DEDFD753EF6177231BF000D
:100080000000803F08000000BE922449123EABAA47
:10009000AA2ABECDCCCC4C3E00000080BEABAAAAA2
:1000A000AA3E00000000BF000000803F00000000EA
:1000B00000084178D3BB4387D1133D190E3CC3BD23
:1000C0004282AD2B3E68EC8276BED98FE1A93E4CD0
:1000D00080EFFFBE01C4FF7F3F000000000011243D
:1000E0001FBECFEFD4E0DEBFCDBF12E0A0E0B1E095
:1000F000E6EBF1E202C005900D92AC35B107D9F7FD
:1001000014E0ACE5B2E001C01D92A138B107E1F7FF
:100110000E940F060C94D9100C940000DF93CF932B
:1001200000D0CDB7DEB79A83898389819A81009701
:10013000E1F4AEEEB0E0EEEEF0E080818F708C93F3
:10014000A3EFB0E0E3EFF0E080818F708C93A8EF35
:10015000B0E0E8EFF0E080818F708C93ADEFB0E01D
:10016000EDEFF0E080818F708C9389819A818130EE
:100170009105E1F4AEEEB0E0EEEEF0E08081807F3C
:100180008C93A3EFB0E0E3EFF0E08081807F8C936D
:10019000A8EFB0E0E8EFF0E08081807F8C93ADEFD6
:1001A000B0E0EDEFF0E08081807F8C9389819A81CF
:1001B00082309105E1F4ADEEB0E0EDEEF0E080814B
:1001C0008F708C93A2EFB0E0E2EFF0E080818F704F
:1001D0008C93A7EFB0E0E7EFF0E080818F708C9315
:1001E000ACEFB0E0ECEFF0E080818F708C93898110
:1001F0009A8183309105E1F4ADEEB0E0EDEEF0E0F0
:100200008081807F8C93A2EFB0E0E2EFF0E080810C
:10021000807F8C93A7EFB0E0E7EFF0E08081807FF4
:100220008C93ACEFB0E0ECEFF0E08081807F8C93BA
:1002300089819A8184309105E1F4ACEEB0E0ECEE76
:10024000F0E080818F708C93A1EFB0E0E1EFF0E0FF
:1002500080818F708C93A6EFB0E0E6EFF0E08081B4
:100260008F708C93ABEFB0E0EBEFF0E080818F709C
:100270008C9389819A8185309105E1F4ACEEB0E0F0
:10028000ECEEF0E08081807F8C93A1EFB0E0E1EFB5
:10029000F0E08081807F8C93A6EFB0E0E6EFF0E0A5
:1002A0008081807F8C93ABEFB0E0EBEFF0E080815A
:1002B000807F8C930F900F90CF91DF910895DF9303
:1002C000CF9300D000D00F92CDB7DEB789837B8368
:1002D0006A8303C089818A50898389818A30D4F7EF
:1002E0008A819B810E948E008A819B819D838C8361
:1002F0008C819D818230910509F4F9C08C819D81AA
:10030000833091055CF48C819D810097D1F08C81C4
:100310009D818130910509F48BC094C28C819D81AF
:100320008430910509F4B9C18C819D818430910597
:100330000CF454C18C819D818530910509F424C24F
:1003400081C2AEEEB0E0EEEEF0E08081282F898130
:10035000992787FD9095880F991F880F991F880FFF
:10036000991FFC01E050FF4F808191818295929509
:10037000907F9827807F9827822B8C93A3EFB0E003
:10038000E3EFF0E08081282F8981992787FD909500
:10039000880F991F880F991F0196880F991FFC01DC
:1003A000E050FF4F8081918182959295907F9827B0
:1003B000807F9827822B8C93A8EFB0E0E8EFF0E0E5
:1003C0008081282F8981992787FD9095880F991F13
:1003D0000196880F991F880F991FFC01E050FF4F6D
:1003E0008081918182959295907F9827807F982730
:1003F000822B8C93ADEFB0E0EDEFF0E08081282F01
:100400008981992787FD9095880F991F880F991FDB
:10041000880F991FFC01EA5FFE4F808191818295D0
:100420009295907F9827807F9827822B8C930AC281
:10043000AEEEB0E0EEEEF0E08081282F89819927C2
:1004400087FD9095880F991F880F991F880F991F16
:10045000FC01E050FF4F80819181822B8C93A3EFB0
:10046000B0E0E3EFF0E08081282F8981992787FDB4
:100470009095880F991F880F991F0196880F991FD3
:10048000FC01E050FF4F80819181822B8C93A8EF7B
:10049000B0E0E8EFF0E08081282F8981992787FD7F
:1004A0009095880F991F0196880F991F880F991FA3
:1004B000FC01E050FF4F80819181822B8C93ADEF46
:1004C000B0E0EDEFF0E08081282F8981992787FD4A
:1004D0009095880F991F880F991F880F991FFC010D
:1004E000EA5FFE4F80819181822B8C93ABC1ADEE90
:1004F000B0E0EDEEF0E08081282F8981992787FD1B
:100500009095880F991F880F991F880F991FFC01DC
:10051000E050FF4F8081918182959295907F98273E
:10052000807F9827822B8C93A2EFB0E0E2EFF0E07F
:100530008081282F8981992787FD9095880F991FA1
:10054000880F991F0196880F991FFC01E050FF4FFB
:100550008081918182959295907F9827807F9827BE
:10056000822B8C93A7EFB0E0E7EFF0E08081282F9B
:100570008981992787FD9095880F991F0196880F8B
:10058000991F880F991FFC01E050FF4F80819181D6
:1005900082959295907F9827807F9827822B8C93C5
:1005A000ACEFB0E0ECEFF0E08081282F8981992753
:1005B00087FD9095880F991F880F991F880F991FA5
:1005C000FC01EA5FFE4F8081918182959295907F38
:1005D0009827807F9827822B8C9334C1ADEEB0E0B2
:1005E000EDEEF0E08081282F8981992787FD909595
:1005F000880F991F880F991F880F991FFC01E050E1
:10060000FF4F80819181822B8C93A2EFB0E0E2EFCB
:10061000F0E08081282F8981992787FD9095880FA8
:10062000991F880F991F0196880F991FFC01E050B0
:10063000FF4F80819181822B8C93A7EFB0E0E7EF91
:10064000F0E08081282F8981992787FD9095880F78
:10065000991F0196880F991F880F991FFC01E05080
:10066000FF4F80819181822B8C93ACEFB0E0ECEF57
:10067000F0E08081282F8981992787FD9095880F48
:10068000991F880F991F880F991FFC01EA5FFE4F81
:1006900080819181822B8C93D5C0ACEEB0E0ECEEE2
:1006A000F0E08081282F8981992787FD9095880F18
:1006B000991F880F991F880F991FFC01E050FF4F69
:1006C0008081918182959295907F9827807F98274D
:1006D000822B8C93A1EFB0E0E1EFF0E08081282F36
:1006E0008981992787FD9095880F991F880F991FF9
:1006F0000196880F991FFC01E050FF4F8081918186
:1007000082959295907F9827807F9827822B8C9353
:10071000A6EFB0E0E6EFF0E08081282F89819927ED
:1007200087FD9095880F991F0196880F991F880F54
:10073000991FFC01E050FF4F808191818295929535
:10074000907F9827807F9827822B8C93ABEFB0E027
:10075000EBEFF0E08081282F8981992787FD909524
:10076000880F991F880F991F880F991FFC01EA5F56
:10077000FE4F8081918182959295907F9827807F0E
:100780009827822B8C935EC0ACEEB0E0ECEEF0E0EC
:100790008081282F8981992787FD9095880F991F3F
:1007A000880F991F880F991FFC01E050FF4F80812F
:1007B0009181822B8C93A1EFB0E0E1EFF0E080819A
:1007C000282F8981992787FD9095880F991F880F79
:1007D000991F0196880F991FFC01E050FF4F8081FF
:1007E0009181822B8C93A6EFB0E0E6EFF0E0808160
:1007F000282F8981992787FD9095880F991F019649
:10080000880F991F880F991FFC01E050FF4F8081CE
:100810009181822B8C93ABEFB0E0EBEFF0E0808125
:10082000282F8981992787FD9095880F991F880F18
:10083000991F880F991FFC01EA5FFE4F808191810B
:10084000822B8C930F900F900F900F900F90CF9161
:10085000DF910895DF93CF9300D000D000D0CDB7C3
:10086000DEB76B837C838D839E8382E090E09A83E6
:10087000898381E090E026960FB6F894DEBF0FBE24
:10088000CDBFCF91DF910895DF93CF93CDB7DEB782
:1008900028970FB6F894DEBF0FBECDBF6B837C8365
:1008A0008D839E8358874F838F8198859A83898310
:1008B0008B819C81AD81BE8124E630E040E050E038
:1008C000BC01CD010E947B0DDC01CB012AE030E0B0
:1008D00040E050E0BC01CD010E947B0DDA01C9016E
:1008E00029813A81B9010E945F0189819A8101962B
:1008F0009A8389838B819C81AD81BE812AE030E01F
:1009000040E050E0BC01CD010E947B0DDC01CB0139
:1009100029813A81B9010E945F0128960FB6F894A7
:10092000DEBF0FBECDBFCF91DF910895DF93CF9390
:1009300000D000D000D0CDB7DEB79E838D8381E09C
:1009400090E0A0E0B0E089839A83AB83BC83898187
:100950009A81AB81BC81BC01CD010E942A04009721
:1009600059F089819A81AB81BC812D813E81BC0186
:10097000CD01A9010E94440489819A81AB81BC8187
:100980000196A11DB11D89839A83AB83BC83DFCF00
:10099000DF93CF9300D000D0CDB7DEB782E090E0F8
:1009A000A0E0B0E089839A83AB83BC831DC08981BA
:1009B0009A81AB81BC81BC01CD010E942A040097C1
:1009C00041F089819A81AB81BC81BC01CD010E943B
:1009D000070589819A81AB81BC810196A11DB11D5A
:1009E00089839A83AB83BC8389819A81AB81BC81E3
:1009F0008F3322E492072FE0A20720E0B207BCF277
:100A00000F900F900F900F90CF91DF910895AF92BC
:100A1000BF92CF92DF92EF92FF920F931F93DF93DB
:100A2000CF93CDB7DEB728970FB6F894DEBF0FBED1
:100A3000CDBF6D837E838F83988785E090E09C8314
:100A40008B8377C06D817E818F8198850E942D0B6D
:100A50007B018C018B819C81AA2797FDA095BA2FE1
:100A6000BC01CD010E942D0B9B01AC0160E070E048
:100A700080E291E40E94330EDC01CB019C01AD01C8
:100A8000C801B7010E94810ADC01CB01BC01CD0184
:100A90000E948B0BDC01CB019A83898389812B8196
:100AA0003C81B9010E945F016D817E818F819885B3
:100AB0000E942D0B5B016C0189819A81AA2797FD09
:100AC000A095BA2FBC01CD010E942D0B7B018C019A
:100AD0008B819C81AA2797FDA095BA2FBC01CD01DF
:100AE0000E942D0B9B01AC0160E070E080E291E47C
:100AF0000E94330E9B01AC01C801B7010E94870917
:100B0000DC01CB019C01AD01C601B5010E942909A0
:100B1000DC01CB01BC01CD010E948B0BDC01CB01C0
:100B20008D839E83AF83B8878B819C8101979C8343
:100B30008B838B819C8199230CF084CF28960FB6F0
:100B4000F894DEBF0FBECDBFCF91DF911F910F9103
:100B5000FF90EF90DF90CF90BF90AF9008951F92DD
:100B60000F920FB60F9211242F933F934F935F93E1
:100B70006F937F938F939F93AF93BF93EF93FF9365
:100B8000DF93CF93CDB7DEB7E3E2F0E09081E5E20B
:100B9000F0E080819823E5E2F0E08081981711F081
:100BA0000E949307CF91DF91FF91EF91BF91AF9199
:100BB0009F918F917F916F915F914F913F912F9175
:100BC0000F900FBE0F901F9018951F920F920FB6A7
:100BD0000F9211242F933F934F935F936F937F93C3
:100BE0008F939F93AF93BF93EF93FF93DF93CF9335
:100BF000CDB7DEB70E949307CF91DF91FF91EF91C0
:100C0000BF91AF919F918F917F916F915F914F9124
:100C10003F912F910F900FBE0F901F901895DF936B
:100C2000CF93CDB7DEB7E4EEF0E080E88083E5EE69
:100C3000F0E087EB8083E1E8F0E084E08083E5E2A8
:100C4000F0E080E88083EDE3F0E080E88083ECE68C
:100C5000F0E080E88083E8E8F0E082E19AE79183C1
:100C60008083E4E8F0E011821082E1E8F0E08DE0BA
:100C70008083EFE6F0E082E0808386E994E060E044
:100C800070E00E94190783E090E00E94960480E0E3
:100C900090E0CF91DF910895DF93CF9300D0CDB74F
:100CA000DEB71A82198228C049815A8189819A81C6
:100CB0009C012F5F3F4F8DE690E0BC01269FC00155
:100CC000279F900D369F900D11249C0123533D4F7B
:100CD0008DE690E0BC01469FC001479F900D569F56
:100CE000900D1124FC01EF52FD4F31832083898147
:100CF0009A8101969A83898389819A8183309105AB
:100D00009CF2109219041092180481E090E09093E4
:100D10005F0280935E020F900F90CF91DF91089554
:100D2000DF93CF9300D000D000D0CDB7DEB79C8347
:100D30008B837E836D83EB81FC8115821482ED8130
:100D4000FE8180819181009739F4ED81FE818B8154
:100D50009C819183808319C0ED81FE818081918186
:100D60009A83898306C0E981FA81848195819A8377
:100D70008983E981FA81848195810097A1F7E981CE
:100D8000FA818B819C819583848326960FB6F89493
:100D9000DEBF0FBECDBFCF91DF910895DF93CF931C
:100DA00000D000D0CDB7DEB79C838B83EB81FC8174
:100DB000808191819A838983EB81FC8180819181FB
:100DC0000097A1F0EB81FC810190F081E02D8481FE
:100DD0009581EB81FC819183808389819A810F9039
:100DE0000F900F900F90CF91DF910895FFCFDF9379
:100DF000CF9300D0CDB7DEB79A838983809152011B
:100E00009091530106960E94EF0D009769F4898135
:100E10009A81909353018093520189819A81069619
:100E200061E070E00E94100E0F900F90CF91DF9163
:100E30000895DF93CF9300D000D000D0CDB7DEB7B8
:100E40009C838B837E836D83F89480915E02909166
:100E50005F02009711F40E944C0680E591E00E9429
:100E6000CE069A838983E981FA818B819C81918363
:100E70008083E981FA818D819E8193838283E981D8
:100E8000FA811582148289819A8106960E94EF0D5B
:100E900081309105F9F47894E0915201F091530179
:100EA00020813181E0915201F0915301828193813F
:100EB000F9010995F894809152019091530120E530
:100EC00031E0B9010E9490068CE592E00E94CE06C6
:100ED0000E94F70689819A810696FC0170968981A5
:100EE0009A814D96845B9F4F9183808389819A81FB
:100EF0000696FC01729689819A814D96845B9F4F7C
:100F00009183808389819A812CE532E0B9010E9426
:100F10009006789426960FB6F894DEBF0FBECDBF2C
:100F2000CF91DF910895DF93CF93CDB7DEB7F894DB
:100F300080915201909153012CE532E0B9010E9459
:100F400090068CE592E00E94CE060E94F706789407
:100F5000CF91DF910895DF93CF9300D0CDB7DEB767
:100F60009A838983F894E981FA8180819181813023
:100F7000910521F40E9493077894F4CFF894E981C5
:100F8000FA8181E090E09183808378940F900F90B4
:100F9000CF91DF910895DF93CF9300D0CDB7DEB727
:100FA0009A838983F894E981FA8111821082789476
:100FB0000F900F90CF91DF910895A0E0B0E0E3EEA5
:100FC000F7E00C94B80DDC012B01FA019C919230F2
:100FD00008F439C1EB018881823008F433C19430C0
:100FE00069F4843009F02FC111969C911197898181
:100FF000981709F428C1A4E5B1E025C1843009F4AB
:1010000021C18230A9F4923009F01DC19A01AD01CD
:1010100088E0EA010990AE01E90109929E01815040
:10102000C1F7E201898111969C918923818308C1CE
:10103000923009F407C112962D903C901397EB0162
:101040008A819B811496AD90BD90CD90DC901797CE
:10105000EC80FD800E811F819101281B390BB901A5
:1010600037FF04C066277727621B730B6032710558
:101070000CF061C0121613066CF537014801062EFC
:1010800004C096948794779467940A94D2F721E0E9
:1010900030E040E050E004C0220F331F441F551FD2
:1010A0006A95D2F721503040404050402E213F21D8
:1010B00040235123211531054105510521F021E03F
:1010C00030E040E050E079018A01E628F72808295D
:1010D00019293CC0232BD1F1260E371E35014601BC
:1010E000062E04C096948794779467940A94D2F756
:1010F00021E030E040E050E004C0220F331F441FE5
:10110000551F6A95D2F721503040404050402A2167
:101110003B214C215D21211531054105510521F06F
:1011200021E030E040E050E059016A01A628B728EC
:10113000C828D9280BC0821593052CF01C01AA24BD
:10114000BB24650103C0EE24FF24870111969C9106
:10115000D20111968C91981709F445C0992339F062
:10116000A80197012A193B094C095D0906C0A6018F
:1011700095012E193F09400B510B57FD08C01182F4
:101180003382228224833583468357831DC081E0C6
:1011900081833382228288279927DC01821B930B6B
:1011A000A40BB50B84839583A683B7830DC0220F50
:1011B000331F441F551F2483358346835783828101
:1011C000938101979383828324813581468157815E
:1011D000DA01C9010197A109B1098F5F9F4FAF4F94
:1011E000BF4328F30BC0918333822282EA0CFB1C9D
:1011F0000C1D1D1DE482F5820683178383E0808326
:10120000248135814681578157FF1AC0C901AA2719
:1012100097FDA095BA2F81709070A070B070569510
:10122000479537952795822B932BA42BB52B848339
:101230009583A683B783828193810196938382836A
:10124000DF0101C0D201CD01CDB7DEB7E2E10C94E0
:10125000D40DA0E2B0E0EFE2F9E00C94C40D698394
:101260007A838B839C832D833E834F835887E9E069
:10127000EE2EF12CEC0EFD1ECE010196B7010E9460
:10128000030D8E010F5E1F4FCE010596B8010E941F
:10129000030D8A8991E089278A8BC701B801AE01C5
:1012A000475E5F4F0E94DD070E942E0CA096E6E08D
:1012B0000C94E00DA0E2B0E0E0E6F9E00C94C40D7F
:1012C00069837A838B839C832D833E834F835887E6
:1012D000F9E0EF2EF12CEC0EFD1ECE010196B701C8
:1012E0000E94030D8E010F5E1F4FCE010596B801BF
:1012F0000E94030DC701B801AE01475E5F4F0E9417
:10130000DD070E942E0CA096E6E00C94E00DA0E212
:10131000B0E0EDE8F9E00C94B80D69837A838B8333
:101320009C832D833E834F835887CE010196BE0157
:10133000675F7F4F0E94030DCE010596BE016F5E71
:101340007F4F0E94030D9985923088F08989823001
:10135000C8F0943019F4823051F404C0843029F478
:10136000923081F484E591E0C6C0923049F420E0E7
:101370009A858A89981321E02A87CE010996BBC0F5
:10138000823049F420E09A858A89981321E02A8BDB
:10139000CE014196B0C02D843E844F8458886D881C
:1013A0007E888F88988CEE24FF248701AA24BB2492
:1013B000650140E050E060E070E0E0E0F0E0C10195
:1013C00081709070892BE9F0E60CF71C081D191D3F
:1013D0009A01AB012A0D3B1D4C1D5D1D80E090E084
:1013E000A0E0B0E0E614F7040805190520F481E058
:1013F00090E0A0E0B0E0BA01A901480F591F6A1FB0
:101400007B1FAA0CBB1CCC1CDD1C97FE08C081E016
:1014100090E0A0E0B0E0A82AB92ACA2ADB2A3196D7
:10142000E032F10549F0660C771C881C991C569433
:10143000479437942794C3CFFA85EA892B893C894E
:101440008B859C85280F391F2E5F3F4F17C0CA011F
:1014500081709070892B61F016950795F794E79449
:1014600080E090E0A0E0B0E8E82AF92A0A2B1B2BE4
:1014700076956795579547952F5F3F4F77FDE7CF57
:101480000CC0440F551F661F771F17FD4160EE0CFF
:10149000FF1C001F111F21503040403090E05907C1
:1014A00090E0690790E4790760F32B8F3C8FDB01B4
:1014B000CA018F779070A070B07080349105A1053B
:1014C000B10561F447FD0AC0E114F10401051105FD
:1014D00029F0405C5F4F6F4F7F4F40781A8EFE17A8
:1014E00011F081E08A8F4D8F5E8F6F8F78A383E03C
:1014F000898FCE0149960E942E0CA096E2E10C94B1
:10150000D40DA8E1B0E0E7E8FAE00C94C00D6983DF
:101510007A838B839C832D833E834F835887B9E0E6
:10152000EB2EF12CEC0EFD1ECE010196B7010E94B0
:10153000030D8E010F5E1F4FCE010596B8010E946C
:10154000030D2985223008F47EC03989323010F429
:10155000B8017CC08A859A8989278A87243011F04E
:10156000223031F4231709F06EC064E571E06EC0DB
:10157000343039F41D861E861F86188A1C861B8609
:1015800004C0323021F484E08987B7015FC02B8525
:101590003C858B899C89281B390B3C872B87ED84E4
:1015A000FE840F851889AD88BE88CF88D88CEA1450
:1015B000FB040C051D0540F4EE0CFF1C001F111F61
:1015C000215030403C872B8720E030E040E050E065
:1015D00080E090E0A0E0B0E460E070E0EA14FB049A
:1015E0000C051D0540F0282B392B4A2B5B2BEA18E4
:1015F000FB080C091D09B695A79597958795EE0CE4
:10160000FF1C001F111F6F5F7F4F6F31710531F796
:10161000DA01C9018F779070A070B07080349105A5
:10162000A105B10561F427FD0AC0E114F10401052B
:10163000110529F0205C3F4F4F4F5F4F20782D87D9
:101640003E874F87588BBE01675F7F4FCB010E945B
:101650002E0C6896EAE00C94DC0DA8E0B0E0E3E321
:10166000FBE00C94C10D9B01AC0183E08983DA019E
:10167000C9018827B7FD83959927AA27BB27B82ECC
:10168000211531054105510519F482E089833AC0DD
:101690008823A9F0203080E0380780E0480780E800
:1016A000580729F460E070E080E09FEC30C0EE2441
:1016B000FF248701E21AF30A040B150B02C079011B
:1016C0008A018EE1C82ED12CDC82CB82ED82FE8293
:1016D0000F831887C801B7010E94DF0B0197181606
:1016E000190684F4082E04C0EE0CFF1C001F111F05
:1016F0000A94D2F7ED82FE820F831887C81AD90A9E
:10170000DC82CB82BA82CE0101960E942E0C2896F2
:10171000E9E00C94DD0DACE0B0E0E1E9FBE00C9415
:10172000C80D69837A838B839C83CE010196BE01A9
:101730006B5F7F4F0E94030D8D81823061F182309B
:1017400050F1843021F48E81882351F12EC02F81F5
:10175000388537FD20C06E812F3131051CF066239E
:10176000F9F023C08EE190E0821B930B29853A8526
:101770004B855C8504C056954795379527958A9586
:10178000D2F76623B1F050954095309521953F4FA3
:101790004F4F5F4F0EC020E030E040E050E009C006
:1017A0002FEF3FEF4FEF5FE704C020E030E040E075
:1017B00050E8B901CA012C96E2E00C94E40DEF92D6
:1017C000FF920F931F937B018C0180E0E81680E06D
:1017D000F80681E0080780E0180788F48FEFE81624
:1017E000F1040105110531F028F088E090E0A0E057
:1017F000B0E017C080E090E0A0E0B0E012C080E070
:10180000E81680E0F80680E0080781E0180728F075
:1018100088E190E0A0E0B0E004C080E190E0A0E0CA
:10182000B0E020E230E040E050E0281B390B4A0BEA
:101830005B0B04C016950795F794E7948A95D2F749
:10184000F701E45AFE4F8081281B310941095109F3
:10185000C9011F910F91FF90EF900895DF92EF92D1
:10186000FF920F931F93FC01E480F580068117819E
:10187000D1808081823048F480E090E0A0E1B0E047
:10188000E82AF92A0A2B1B2BA5C0843009F49FC033
:10189000823021F4EE24FF24870105C0E114F10415
:1018A0000105110519F4E0E0F0E096C06281738152
:1018B0009FEF623879070CF05BC022E83FEF261BF0
:1018C000370B2A3131052CF020E030E040E050E0C9
:1018D0002AC0B801A701022E04C0769567955795D6
:1018E00047950A94D2F781E090E0A0E0B0E004C010
:1018F000880F991FAA1FBB1F2A95D2F70197A1092C
:10190000B1098E219F21A023B1230097A105B10524
:1019100021F081E090E0A0E0B0E09A01AB01282B3B
:10192000392B4A2B5B2BDA01C9018F779070A0709D
:10193000B07080349105A105B10539F427FF09C0C5
:10194000205C3F4F4F4F5F4F04C0215C3F4F4F4FD4
:101950005F4FE0E0F0E02030A0E03A07A0E04A0767
:10196000A0E45A0710F0E1E0F0E079018A0127C015
:101970006038710564F5FB01E158FF4FD801C701DC
:101980008F779070A070B07080349105A105B1057B
:1019900039F4E7FE0DC080E490E0A0E0B0E004C0C0
:1019A0008FE390E0A0E0B0E0E80EF91E0A1F1B1FD5
:1019B00017FF05C016950795F794E794319687E0D1
:1019C00016950795F794E7948A95D1F705C0EE240C
:1019D000FF248701EFEFF0E06E2F6795662767958C
:1019E000902F9F77D794DD24D7948E2F8695492FFB
:1019F000462B582F5D29B701CA011F910F91FF9007
:101A0000EF90DF900895FC01DB014081518122813C
:101A1000622F6F7770E0221F2227221F9381892F68
:101A2000880F822B282F30E0991F9927991F119634
:101A30009C93119721153105A9F5411551056105B3
:101A4000710511F482E037C082E89FEF13969C93F2
:101A50008E9312979A01AB0167E0220F331F441F48
:101A6000551F6A95D1F783E08C930DC0220F331F69
:101A7000441F551F12968D919C91139701971396B1
:101A80009C938E931297203080E0380780E04807BF
:101A900080E4580758F314962D933D934D935C932F
:101AA000179708952F3F310579F4411551056105C8
:101AB000710519F484E08C93089564FF03C081E0FC
:101AC0008C9312C01C9210C02F57304013963C9339
:101AD0002E93129783E08C9387E0440F551F661F67
:101AE000771F8A95D1F7706414964D935D936D932B
:101AF0007C931797089597FB092E05260ED057FD66
:101B000004D014D00AD0001C38F45095409530957C
:101B100021953F4F4F4F5F4F0895F6F79095809571
:101B2000709561957F4F8F4F9F4F0895A1E21A2EB8
:101B3000AA1BBB1BFD010DC0AA1FBB1FEE1FFF1F71
:101B4000A217B307E407F50720F0A21BB30BE40BC1
:101B5000F50B661F771F881F991F1A9469F7609508
:101B60007095809590959B01AC01BD01CF010895C2
:101B70002F923F924F925F926F927F928F929F929D
:101B8000AF92BF92CF92DF92EF92FF920F931F938B
:101B9000CF93DF93CDB7DEB7CA1BDB0B0FB6F8943C
:101BA000DEBF0FBECDBF09942A88398848885F847C
:101BB0006E847D848C849B84AA84B984C884DF80ED
:101BC000EE80FD800C811B81AA81B981CE0FD11DD1
:101BD0000FB6F894DEBF0FBECDBFED010895A82F5C
:101BE000B92F2D923D924D925D926D927D928D9284
:101BF0009D92AD92BD92CD92DD92ED92FD920D93AC
:101C00001D93CD93DD93FF91EF918DB78D938EB79B
:101C10008D938FB78D93ED93FD9388279927099422
:101C2000A82FB92F862F972F81309105811D2D90D8
:101C30003D904D905D906D907D908D909D90AD907C
:101C4000BD90CD90DD90ED90FD900D911D91CD91C9
:101C5000DD91ED91FD910D90F894FEBF0FBEEDBFAB
:101C6000ED91FD910994E42FF52FEE0FFF1F3096B3
:101C700021053105A1F16115710561F48038BFE3DB
:101C80009B0751F168949038810561F08038BFEF6F
:101C90009B0741F099234AF5FF3FE10531052105F6
:101CA00019F1E8940894E795A22FB32FAA2329F4F9
:101CB000AB2FBE2FF85FD0F310C0FF5F70F4A69576
:101CC000E0F7F73950F019F0FF3A38F49F779F9317
:101CD0000CD00F9007FC905808953EF049C060E08A
:101CE00070E080E89FE308954FE79F775F934F93FD
:101CF0003F932F93E5D02F913F914F915F9107DB59
:101D000005C019F40EF02EC08FC032C073D0C8F3D6
:101D10009638C0F707F80F92E8942BE33AEA48EBBD
:101D20005FE757D10F920F920F924DB75EB70F92A8
:101D30000CD1ECE5F0E01FD04F915F91EF91FF9156
:101D4000E595EE1FFF1F49F0FE57E0684427EE0FB0
:101D5000441FFA95E1F74195550B79D00F9007FE96
:101D60006BC0089597F99F6780E870E060E0089580
:101D70009FEF80EC0895DF93CF931F930F93FF9213
:101D8000EF92DF92E62EF72E082F192F689407C0E6
:101D9000DA2ECE2FDF2F1BD1EC2FFD2FE894C89524
:101DA000A02D3196C895202D3196C895302D3196AD
:101DB000C895402D3196C895502D31964EF3CE2FB3
:101DC000DF2F72D1EC2FFD2F2E2D3F2D402F512FC5
:101DD000DA94F9F6DF90EF90FF900F911F91CF9179
:101DE000DF91089557FD9058440F551F59F05F3FFC
:101DF00071F04795880F97FB991F61F09F3F79F02D
:101E000087950895121613061406551FF2CF4695AE
:101E1000F1DF08C0161617061806991FF1CF869530
:101E20007105610508940895E894BB276627772714
:101E3000862F972F97F90895262F372F482F592F40
:101E400060E070E080E89FE35CCB8CCF85C1D2DF9F
:101E5000E8F39923D9F3940F511DBBF391505040EF
:101E600094F059F0882332F0660F771F881F915045
:101E70005040C1F79E3F510544F7880F911D96953C
:101E8000879597F908955F3FACF0983E9CF0BB278B
:101E9000869577956795B79508F4B1609395C1F7E6
:101EA000BB0F58F711F460FFE8CF6F5F7F4F8F4F84
:101EB0009F4FE3CFBACF0EF04FC15ACF689452CFA5
:101EC00099DFC8F39923D1F3C6F3DF93CF931F9320
:101ED0000F93FF92C92FDD2788232AF02197660FE1
:101EE000771F881FDAF720E030E040E85FEB9FE3E0
:101EF000883920F0803E30F021968F77DBD9E4E8F6
:101F0000F0E003C0D7D9E1EBF0E035DF062F172F63
:101F10006C2F7D2FC82FD92FFB2E6F577109759508
:101F2000771F880B990B99DB28E132E741E35FE3E8
:101F30004ED0AF2D202F312F4C2F5D2FFF900F91C2
:101F40001F91CF91DF91B0D023C1E42FF52FA82F9F
:101F5000B92FAA0FBB1F262F372F482F592FBF5736
:101F600028F4222733274427507821C0B75188F41A
:101F7000AB2F0024469537952795011CA395D2F3E6
:101F8000002069F0220F331F441FB395DAF30FD0FE
:101F900060C961307105A0E88A07B94640F4262F70
:101FA000372F482F592F6627772788279078309624
:101FB00021F020833183428353830895DBD028F0BE
:101FC000E0D018F0952309F0CDCED2CE2ECF0ADF87
:101FD000A8F39923D9F35523C9F3950F50E0551F62
:101FE000AA27EE27FF27BB2700240894679520F433
:101FF000E20FF31FB41F0A1E220F331F441FAA1F34
:102000006695A9F7779530F4F30FB41F0A1E121ED8
:1020100008F46395330F441FAA1F221F769599F782
:10202000879520F4B40F0A1E121E631F440FAA1FC7
:10203000221F331F8695A9F7862F712D602D11243D
:102040009F5750408AF0E1F088234AF0EE0FFF1FBF
:10205000BB1F661F771F881F91505040A9F79E3FF6
:10206000510570F07FCEE1CE5F3FECF3983EDCF39C
:10207000869577956795B795F795E7959F5FC1F733
:10208000FE2B880F911D9695879597F9089572D02C
:1020900030F077D020F031F49F3F11F41EF468CE79
:1020A0000EF4E095E7FB5ECEE92F9CDE80F3BA17D5
:1020B000620773078407950718F099F4C6F5B4CE44
:1020C0000EF4E0950B2EBA2FA02D062E622F202D98
:1020D000072E732F302D082E842F402D092E952F7B
:1020E000502DFF27591B99F0593F50F4503E68F18D
:1020F0001A16F040A22F232F342F4427585FF3CF16
:10210000469537952795A795F0405395C9F77EF4E6
:102110001F16BA0B620B730B840BBAF09150A1F02F
:10212000FF0FBB1F661F771F881FC2F70EC0BA0FB5
:10213000621F731F841F48F4879577956795B7953D
:10214000F7959E3F08F0AECF9395880F08F099273A
:10215000EE0F9795879508959F3F31F0915020F4A9
:10216000879577956795B795880F911D9695879573
:1021700097F9089500240A941616170618060906FA
:10218000089500240A9412161306140605060895ED
:10219000092E0394000C11F4882352F0BB0F40F475
:1021A000BF2B11F460FF04C06F5F7F4F8F4F9F4FB5
:0621B0000895F894FFCF32
:1021B600010005000500010000000100010000000B
:1021C600010001000E000100010001000B000100EA
:1021D600000005000B000000010004000B000100D8
:1021E600010004000F0001000100010001000000D1
:1021F600010005000F000100010005000B000100B1
:10220600CD02600200000000000000000001020292
:102216000303030304040404040404040505050578
:102226000505050505050505050505050606060654
:102236000606060606060606060606060606060638
:102246000606060606060606060606060707070724
:102256000707070707070707070707070707070708
:1022660007070707070707070707070707070707F8
:1022760007070707070707070707070707070707E8
:1022860007070707070707070707070708080808D4
:1022960008080808080808080808080808080808B8
:1022A60008080808080808080808080808080808A8
:1022B6000808080808080808080808080808080898
:1022C6000808080808080808080808080808080888
:1022D6000808080808080808080808080808080878
:1022E6000808080808080808080808080808080868
:1022F6000808080808080808080808080808080858
:0C2306000808080808080808080808086B
:00000001FF
