:100000000CC027C026C025C024C023C022C021C0E8
:1000100020C01FC01EC01DC01CC011241FBECFE5C4
:10002000D2E0DEBFCDBF10E0A0E6B0E0ECE1FDE045
:1000300003C0C89531960D92A43BB107D1F712E0E9
:10004000A4EBB0E001C01D92A93DB107E1F73CD49B
:1000500063C6D6CFDF93CF9300D0CDB7DEB79A83F8
:10006000898389819A810097E1F4AEEEB0E0EEEEEB
:10007000F0E080818F708C93A3EFB0E0E3EFF0E0CD
:1000800080818F708C93A8EFB0E0E8EFF0E0808182
:100090008F708C93ADEFB0E0EDEFF0E080818F706A
:1000A0008C9389819A8181309105E1F4AEEEB0E0C4
:1000B000EEEEF0E08081807F8C93A3EFB0E0E3EF81
:1000C000F0E08081807F8C93A8EFB0E0E8EFF0E073
:1000D0008081807F8C93ADEFB0E0EDEFF0E0808128
:1000E000807F8C9389819A8182309105E1F4ADEE15
:1000F000B0E0EDEEF0E080818F708C93A2EFB0E085
:10010000E2EFF0E080818F708C93A7EFB0E0E7EF33
:10011000F0E080818F708C93ACEFB0E0ECEFF0E01A
:1001200080818F708C9389819A8183309105E1F46D
:10013000ADEEB0E0EDEEF0E08081807F8C93A2EF39
:10014000B0E0E2EFF0E08081807F8C93A7EFB0E039
:10015000E7EFF0E08081807F8C93ACEFB0E0ECEFD4
:10016000F0E08081807F8C9389819A818430910531
:10017000E1F4ACEEB0E0ECEEF0E080818F708C93B7
:10018000A1EFB0E0E1EFF0E080818F708C93A6EFFB
:10019000B0E0E6EFF0E080818F708C93ABEFB0E0E1
:1001A000EBEFF0E080818F708C9389819A818530AC
:1001B0009105E1F4ACEEB0E0ECEEF0E08081807F00
:1001C0008C93A1EFB0E0E1EFF0E08081807F8C9331
:1001D000A6EFB0E0E6EFF0E08081807F8C93ABEF9C
:1001E000B0E0EBEFF0E08081807F8C930F900F9078
:1001F000CF91DF910895DF93CF9300D000D00F927D
:10020000CDB7DEB789837B836A8303C089818A5037
:10021000898389818A30D4F78A819B810E942A0050
:100220008A819B819D838C838C819D818230910505
:1002300009F4F9C08C819D81833091055CF48C8137
:100240009D810097D1F08C819D818130910509F4C9
:100250008BC094C28C819D818430910509F4B9C111
:100260008C819D81843091050CF454C18C819D81D9
:100270008530910509F424C281C2AEEEB0E0EEEE05
:10028000F0E08081282F8981992787FD9095880F3C
:10029000991F880F991F880F991FFC01E05AFF4F83
:1002A0008081918182959295907F9827807F982771
:1002B000822B8C93A3EFB0E0E3EFF0E08081282F56
:1002C0008981992787FD9095880F991F880F991F1D
:1002D0000196880F991FFC01E05AFF4F80819181A0
:1002E00082959295907F9827807F9827822B8C9378
:1002F000A8EFB0E0E8EFF0E08081282F898199270E
:1003000087FD9095880F991F0196880F991F880F78
:10031000991FFC01E05AFF4F80819181829592954F
:10032000907F9827807F9827822B8C93ADEFB0E049
:10033000EDEFF0E08081282F8981992787FD909546
:10034000880F991F880F991F880F991FFC01EA5980
:10035000FF4F8081918182959295907F9827807F31
:100360009827822B8C930AC2AEEEB0E0EEEEF0E05E
:100370008081282F8981992787FD9095880F991F63
:10038000880F991F880F991FFC01E05AFF4F808149
:100390009181822B8C93A3EFB0E0E3EFF0E08081BA
:1003A000282F8981992787FD9095880F991F880F9D
:1003B000991F0196880F991FFC01E05AFF4F808119
:1003C0009181822B8C93A8EFB0E0E8EFF0E0808180
:1003D000282F8981992787FD9095880F991F01966D
:1003E000880F991F880F991FFC01E05AFF4F8081E9
:1003F0009181822B8C93ADEFB0E0EDEFF0E0808146
:10040000282F8981992787FD9095880F991F880F3C
:10041000991F880F991FFC01EA59FF4F8081918134
:10042000822B8C93ABC1ADEEB0E0EDEEF0E08081BD
:10043000282F8981992787FD9095880F991F880F0C
:10044000991F880F991FFC01E05AFF4F808191810D
:1004500082959295907F9827807F9827822B8C9306
:10046000A2EFB0E0E2EFF0E08081282F89819927A8
:1004700087FD9095880F991F880F991F0196880F07
:10048000991FFC01E05AFF4F8081918182959295DE
:10049000907F9827807F9827822B8C93A7EFB0E0DE
:1004A000E7EFF0E08081282F8981992787FD9095DB
:1004B000880F991F0196880F991F880F991FFC01BB
:1004C000E05AFF4F8081918182959295907F982785
:1004D000807F9827822B8C93ACEFB0E0ECEFF0E0BC
:1004E0008081282F8981992787FD9095880F991FF2
:1004F000880F991F880F991FFC01EA59FF4F8081CF
:10050000918182959295907F9827807F9827822B62
:100510008C9334C1ADEEB0E0EDEEF0E08081282F99
:100520008981992787FD9095880F991F880F991FBA
:10053000880F991FFC01E05AFF4F80819181822B27
:100540008C93A2EFB0E0E2EFF0E08081282F898168
:10055000992787FD9095880F991F880F991F0196FD
:10056000880F991FFC01E05AFF4F80819181822BF7
:100570008C93A7EFB0E0E7EFF0E08081282F89812E
:10058000992787FD9095880F991F0196880F991FCD
:10059000880F991FFC01E05AFF4F80819181822BC7
:1005A0008C93ACEFB0E0ECEFF0E08081282F8981F4
:1005B000992787FD9095880F991F880F991F880F9D
:1005C000991FFC01EA59FF4F80819181822B8C9306
:1005D000D5C0ACEEB0E0ECEEF0E08081282F898150
:1005E000992787FD9095880F991F880F991F880F6D
:1005F000991FFC01E05AFF4F80819181829592956D
:10060000907F9827807F9827822B8C93A1EFB0E072
:10061000E1EFF0E08081282F8981992787FD90956F
:10062000880F991F880F991F0196880F991FFC0149
:10063000E05AFF4F8081918182959295907F982713
:10064000807F9827822B8C93A6EFB0E0E6EFF0E056
:100650008081282F8981992787FD9095880F991F80
:100660000196880F991F880F991FFC01E05AFF4FD0
:100670008081918182959295907F9827807F98279D
:10068000822B8C93ABEFB0E0EBEFF0E08081282F72
:100690008981992787FD9095880F991F880F991F49
:1006A000880F991FFC01EA59FF4F80819181829543
:1006B0009295907F9827807F9827822B8C935EC09D
:1006C000ACEEB0E0ECEEF0E08081282F8981992734
:1006D00087FD9095880F991F880F991F880F991F84
:1006E000FC01E05AFF4F80819181822B8C93A1EF16
:1006F000B0E0E1EFF0E08081282F8981992787FD24
:100700009095880F991F880F991F0196880F991F40
:10071000FC01E05AFF4F80819181822B8C93A6EFE0
:10072000B0E0E6EFF0E08081282F8981992787FDEE
:100730009095880F991F0196880F991F880F991F10
:10074000FC01E05AFF4F80819181822B8C93ABEFAB
:10075000B0E0EBEFF0E08081282F8981992787FDB9
:100760009095880F991F880F991F880F991FFC017A
:10077000EA59FF4F80819181822B8C930F900F90CB
:100780000F900F900F90CF91DF910895DF93CF934B
:1007900000D000D000D0CDB7DEB76B837C838D83D3
:1007A0009E8382E090E09A83898381E090E02696A0
:1007B0000FB6F894DEBF0FBECDBFCF91DF91089585
:1007C000DF93CF93CDB7DEB728970FB6F894DEBF8F
:1007D0000FBECDBF6B837C838D839E8358874F83F1
:1007E0008F8198859A8389838B819C81AD81BE811D
:1007F00024E630E040E050E0BC01CD010E94060656
:10080000DC01CB012AE030E040E050E0BC01CD014A
:100810000E940606DA01C90129813A81B9010E94C4
:10082000FB0089819A8101969A8389838B819C81BF
:10083000AD81BE812AE030E040E050E0BC01CD0156
:100840000E940606DC01CB0129813A81B9010E9490
:10085000FB0028960FB6F894DEBF0FBECDBFCF9138
:10086000DF910895DF93CF9300D000D000D0CDB7B3
:10087000DEB79E838D8381E090E0A0E0B0E08983C5
:100880009A83AB83BC8389819A81AB81BC81BC0193
:10089000CD010E94C603009759F089819A81AB81EE
:1008A000BC812D813E81BC01CD01A9010E94E003E4
:1008B00089819A81AB81BC810196A11DB11D89837B
:1008C0009A83AB83BC83DFCFDF93CF93CDB7DEB703
:1008D00061E070E080E090E040E050E00E94E003E2
:1008E00080E090E0CF91DF910895DF93CF9300D027
:1008F000CDB7DEB71A82198228C049815A81898111
:100900009A819C012F5F3F4F8DE690E0BC01269FAE
:10091000C001279F900D369F900D11249C012B5DE7
:100920003E4F8DE690E0BC01469FC001479F900D71
:10093000569F900D1124FC01E75DFE4F318320830B
:1009400089819A8101969A83898389819A818330EA
:1009500091059CF2109271021092700281E090E079
:100960009093B7008093B6000F900F90CF91DF91D6
:100970000895DF93CF9300D000D000D0CDB7DEB77D
:100980009C838B837E836D83EB81FC811582148233
:10099000ED81FE8180819181009739F4ED81FE81A6
:1009A0008B819C819183808319C0ED81FE81808140
:1009B00091819A83898306C0E981FA818481958136
:1009C0009A838983E981FA81848195810097A1F7CF
:1009D000E981FA818B819C819583848326960FB669
:1009E000F894DEBF0FBECDBFCF91DF910895DF93A6
:1009F000CF9300D000D0CDB7DEB79C838B83EB8143
:100A0000FC81808191819A838983EB81FC81808143
:100A100091810097A1F0EB81FC810190F081E02DA4
:100A200084819581EB81FC819183808389819A8186
:100A30000F900F900F900F90CF91DF910895FFCFFF
:100A4000DF93CF9300D0CDB7DEB79A8389838091AF
:100A5000B2009091B30006960E944806009769F490
:100A600089819A819093B3008093B20089819A81A1
:100A7000069661E070E00E9469060F900F90CF919A
:100A8000DF910895DF93CF9300D000D000D0CDB791
:100A9000DEB79C838B837E836D83F8948091B60050
:100AA0009091B700009711F40E94750480EB90E0DC
:100AB0000E94F7049A838983E981FA818B819C8162
:100AC00091838083E981FA818D819E8193838283E2
:100AD000E981FA811582148289819A8106960E94A1
:100AE000480681309105F9F47894E091B200F091D4
:100AF000B30020813181E091B200F091B300828196
:100B00009381F9010995F8948091B2009091B30016
:100B100020EB30E0B9010E94B90484EB90E00E9420
:100B2000F7040E94200589819A810696FC0170963F
:100B300089819A814D96845B9F4F918380838981BF
:100B40009A810696FC01729689819A814D96845B02
:100B50009F4F9183808389819A8124EB30E0B90192
:100B60000E94B904789426960FB6F894DEBF0FBEA3
:100B7000CDBFCF91DF910895DF93CF93CDB7DEB78F
:100B8000F8948091B2009091B30024EB30E0B90169
:100B90000E94B90484EB90E00E94F7040E942005B3
:100BA0007894CF91DF910895DF93CF9300D0CDB7A4
:100BB000DEB79A838983F894E981FA8180819181F3
:100BC0008130910521F40E94BC057894F4CFF8940B
:100BD000E981FA8181E090E09183808378940F909D
:100BE0000F90CF91DF910895DF93CF9300D0CDB7D1
:100BF000DEB79A838983F894E981FA8111821082A1
:100C000078940F900F90CF91DF91089597FB092E64
:100C100005260ED057FD04D014D00AD0001C38F49D
:100C200050954095309521953F4F4F4F5F4F089518
:100C3000F6F790958095709561957F4F8F4F9F4FF8
:100C40000895A1E21A2EAA1BBB1BEA2FFB2F0DC091
:100C5000AA1FBB1FEE1FFF1FA217B307E407F5076C
:100C600020F0A21BB30BE40BF50B661F771F881F48
:100C7000991F1A9469F76095709580959095262F25
:100C8000372F482F592F6A2F7B2F8E2F9F2F089594
:100C9000A82FB92F2D923D924D925D926D927D922B
:100CA0008D929D92AD92BD92CD92DD92ED92FD928C
:100CB0000D931D93CD93DD93FF91EF918DB78D93A0
:100CC0008EB78D938FB78D93ED93FD9388279927DA
:100CD0000994A82FB92F862F972F81309105811D58
:100CE0002D903D904D905D906D907D908D909D905C
:100CF000AD90BD90CD90DD90ED90FD900D911D914A
:100D0000CD91DD91ED91FD910D90F894FEBF0FBE58
:0C0D1000EDBFED91FD910994F894FFCF28
:100D1C0001000500050001000000010001000000B9
:100D2C00010001000E000100010001000B00010098
:100D3C00000005000B000000010004000B00010086
:100D4C00010004000F00010001000100010000007F
:100D5C00010005000F000100010005000B0001005F
:040D6C002501B800A5
:00000001FF
