:100000000C946F000C948C000C948C000C948C005D
:100010000C948C000C948C000C948C000C94080AAA
:100020000C948C000C94DE0A0C948C000C948C00C4
:100030000C948C000C948C000C948C000C948C0010
:100040000C948C000C948C000C948C000C948C0000
:100050000C948C000C948C000C948C00076342363A
:10006000B79BD8A71A39685618AEBAAB558C1D3C49
:10007000B7CC5763BD6DEDFD753EF6177231BF000D
:100080000000803F08000000BE922449123EABAA47
:10009000AA2ABECDCCCC4C3E00000080BEABAAAAA2
:1000A000AA3E00000000BF000000803F00000000EA
:1000B00000084178D3BB4387D1133D190E3CC3BD23
:1000C0004282AD2B3E68EC8276BED98FE1A93E4CD0
:1000D00080EFFFBE01C4FF7F3F000000000011243D
:1000E0001FBECFEFD4E0DEBFCDBF11E0A0E0B1E096
:1000F000E2E9F0E202C005900D92A036B107D9F70F
:1001000013E0A0E6B1E001C01D92A738B107E1F706
:100110000E94AA040C9447100C940000FC01118664
:1001200010860895FC01718760870895AF92BF9291
:10013000CF92DF92EF92FF920F931F93CF93DF93B3
:10014000EC015B0188859985181619060CF043C0EF
:100150008C819D814E815F816115710519F06EE082
:1001600071E002C06FE171E00E94340708851985D3
:10017000C80164E070E00E94A20F6B01EE24D7FC7E
:10018000E094FE2C222717FD2095322FD901C801BB
:1001900045E0880F991FAA1FBB1F4A95D1F7801B06
:1001A000910BA20BB30BC80ED91EEA1EFB1EE0E09A
:1001B000F0E0AB2811F4E1E0F0E0C701B6012FEF69
:1001C0003FEF4FEF5FEF8E01A6E9EA2EA0E0FA2E97
:1001D0006F010E94BB07DF91CF911F910F91FF909C
:1001E000EF90DF90CF90BF90AF90089560E070E007
:1001F0000E949600089523B135B145B13223FC0128
:1002000084819581341719F06EE071E002C06FE1CE
:1002100071E048E050E00E943407089568307105AD
:1002200021F06D30710551F404C081E08093F40039
:1002300008958091F90081608093F90008956830F5
:10024000710521F06D30710541F403C01092F40086
:1002500008958091F9001092F9000895E82F01C0E7
:10026000EA50EA30ECF761157105A9F48091EE00CF
:100270008F708093EE008091F3008F708093F30075
:100280008091F8008F708093F8008091FD008F704E
:100290008093FD0048C061307105A9F48091EE00A3
:1002A000807F8093EE008091F300807F8093F30045
:1002B0008091F800807F8093F8008091FD00807F1E
:1002C0008093FD0048C062307105A9F48091ED0073
:1002D0008F708093ED008091F2008F708093F20018
:1002E0008091F7008F708093F7008091FC008F70F1
:1002F0008093FC0048C063307105A9F48091ED0043
:10030000807F8093ED008091F200807F8093F200E7
:100310008091F700807F8093F7008091FC00807FC0
:100320008093FC00FDC064307105A9F48091EC005D
:100330008F708093EC008091F1008F708093F100BA
:100340008091F6008F708093F6008091FB008F7093
:100350008093FB0010C165307105A9F48091EC0019
:10036000807F8093EC008091F100807F8093F1008A
:100370008091F600807F8093F6008091FB00807F63
:100380008093FB003BC16230710509F486C0633085
:10039000710544F46115710591F06130710509F042
:1003A00057C150C06430710509F4E5C0643071056F
:1003B0000CF4B6C06530710509F04AC11FC1209127
:1003C000EE00FF27E7FDF09543E0EE0FFF1F4A9593
:1003D000E1F7AF0140505F4FDA018D919C9134E01D
:1003E000880F991F3A95E1F7282B2093EE00209172
:1003F000F300DF01AE5FBE4F8D919C91B4E0880F9A
:10040000991FBA95E1F7282B2093F3002091F8006B
:10041000EC5FFE4F80819181F4E0880F991FFA957F
:10042000E1F7282B2093F8002091FD00FA01868146
:100430009781E4E0880F991FEA95E1F7282B209334
:10044000FD0008959091EE00FF27E7FDF09573E021
:10045000EE0FFF1F7A95E1F79F0120503F4FD90122
:100460008C91982B9093EE009091F300DF01AE5F9A
:10047000BE4F8C91982B9093F3009091F800EC5F15
:10048000FE4F8081982B9093F8008091FD00F90138
:100490009681892B8093FD0008952091ED00FF2720
:1004A000E7FDF09543E0EE0FFF1F4A95E1F7AF013E
:1004B00040505F4FDA018D919C9134E0880F991F75
:1004C0003A95E1F7282B2093ED002091F200DF010F
:1004D000AE5FBE4F8D919C91B4E0880F991FBA9585
:1004E000E1F7282B2093F2002091F700EC5FFE4FFC
:1004F00080819181F4E0880F991FFA95E1F7282B0C
:100500002093F7002091FC00FA0186819781E4E0B6
:10051000880F991FEA95E1F7282B2093FC00089596
:100520009091ED00FF27E7FDF09573E0EE0FFF1FC0
:100530007A95E1F79F0120503F4FD9018C91982B7C
:100540009093ED009091F200DF01AE5FBE4F8C9171
:10055000982B9093F2009091F700EC5FFE4F808112
:10056000982B9093F7008091FC00F9019681892BDC
:100570008093FC0008952091EC00FF27E7FDF095A3
:1005800043E0EE0FFF1F4A95E1F7AF0140505F4F88
:10059000DA018D919C9134E0880F991F3A95E1F72B
:1005A000282B2093EC002091F100DF01AE5FBE4FBD
:1005B0008D919C91B4E0880F991FBA95E1F7282B93
:1005C0002093F1002091F600EC5FFE4F8081918135
:1005D00074E0880F991F7A95E1F7282B2093F60095
:1005E0002091FB00FA018681978164E0880F991FB2
:1005F0006A95E1F7282B2093FB0008959091EC0079
:10060000FF27E7FDF09553E0EE0FFF1F5A95E1F746
:100610009F0120503F4FD9018C91982B9093EC0073
:100620009091F100DF01AE5FBE4F8C91982B9093BB
:10063000F1009091F600EC5FFE4F8081982B909333
:10064000F6008091FB00F9019681892B8093FB00D5
:1006500008959B01CB016AE070E00E94A20F462F33
:10066000C9016AE070E00E94A20FBC01842F0E94C1
:100670002E0180E090E008956F927F928F929F927A
:10068000AF92BF92CF92DF92EF92FF920F931F93A0
:10069000CF93DF93CB01AA2797FDA095BA2FC5E092
:1006A000D0E0BC01CD010E944E0D3B014C01BE01CA
:1006B000882777FD8095982F0E944E0D7B018C0135
:1006C00060E070E080E291E4A80197010E943D0E95
:1006D0009B01AC01C401B3010E94B30C0E941B0D2D
:1006E0005B016C01862FBE010E942E0160E070E06C
:1006F00080E291E4A80197010E943D0E7B018C01EC
:10070000B501882777FD8095982F0E944E0DA8018E
:1007100097010E94DA0D9B01AC01C401B3010E9454
:100720004E0C0E941B0DDC01CB0121972FEFCF3F18
:10073000D20709F0B6CF80E090E0DF91CF911F9112
:100740000F91FF90EF90DF90CF90BF90AF909F9070
:100750008F907F906F90089508952D9A08952D9809
:100760000895CF92DF92EF92FF920F931F938C0127
:100770006115710511F02D9A01C02D98E0E0F0E0AF
:10078000672B11F4E1E0F0E069E07DE380E090E0C8
:100790002FEF3FEF4FEF5FEFA1EBEA2EA3E0FA2E32
:1007A0006F010E94BB071F910F91FF90EF90DF90A8
:1007B000CF9008958F929F92AF92BF92CF92DF9287
:1007C000EF92FF920F931F93CF93DF934C01EB01B6
:1007D0005B01CC24B7FCC094DC2C82E0A816B104E9
:1007E000C104D104F4F0F2E0EF2EF12C012D112D13
:1007F0000EC00894E11CF11C011D111DC601B501BC
:100800000E94B50F611571058105910551F0D80160
:10081000C7019701AD01EA14FB040C051D054CF35B
:100820001EC021966AE678E180E090E02FEF3FEF6E
:100830004FEF5FEF8401EAEDEE2EE3E0FE2E6E0156
:100840000E94BB07DF91CF911F910F91FF90EF9016
:10085000DF90CF90BF90AF909F908F900895F4015C
:10086000848195816CE373E0AE010E943407D9CF97
:10087000FC01778366830895AF92BF92CF92DF9297
:10088000EF92FF920F931F935C01FC01048115818D
:1008900060E070E080E090E02FEF3FEF4FEF5FEF20
:1008A000ADEAEA2EA3E0FA2ECC24DD240E94BB0799
:1008B000F5016681778182E19AE70E94A20F88277D
:1008C00077FD8095982F048115812FEF3FEF4FEF33
:1008D0005FEFFFEAEF2EF3E0FF2E0E94BB07F5016A
:1008E0006681778184E294EF0E94A20F882777FDCA
:1008F0008095982F2FEF3FEF4FEF5FEF8501ECE3EF
:10090000EE2EE4E0FE2E0E94BB071F910F91FF9098
:10091000EF90DF90CF90BF90AF90089580E88093E4
:10092000E40087EB8093E50021E12093EC0098E858
:100930009093F10083E38093FB002093ED0090936C
:10094000F2008093FC002093EE009093F3008093DC
:10095000FD000895CF92DF92EF92FF920F931F93C5
:100960000E94840687EB8093E50080E18093E60097
:100970008FE08093E70080E88093E40080E284B910
:100980006FEF7FEF8FEF9FEF2FEF3FEF4FEF5FEFB7
:1009900000E511E0ECE3EE2EE4E0FE2ECC24DD24B5
:1009A0000E94BB070E94BB0B80E090E01F910F915B
:1009B000FF90EF90DF90CF900895CF92DF92EF926B
:1009C000FF920F931F93CF93DF938C01DB01ED9187
:1009D000FC91C0E0D0E005C0EF01808191819C01D5
:1009E000F9013097A1F0C680D780E084F184D80166
:1009F00016962D913D914D915C911997C21AD30A8B
:100A0000E40AF50A1C141D041E041F042CF7D80167
:100A1000ED93FC93209721F4FB011183008302C026
:100A200019830883DF91CF911F910F91FF90EF9071
:100A3000DF90CF900895CF92DF92EF92FF920F93C5
:100A40001F93CF93DF938C01DB01ED91FC91C0E00C
:100A5000D0E005C0EF01808191819C01F9013097C0
:100A6000A1F0C280D380E480F580D80112962D9148
:100A70003D914D915C911597C21AD30AE40AF50A8B
:100A80001C141D041E041F042CF7D801ED93FC93C5
:100A9000209721F4FB011183008302C0198308838E
:100AA000DF91CF911F910F91FF90EF90DF90CF904A
:100AB0000895DC01ED91FC911197309731F0808120
:100AC00091818D939C93CF01089587EB8093E500EE
:100AD00080E18093E6008FE08093E70080E88093D8
:100AE000E4008FEF8093EC008093ED008093EE00A4
:100AF00081E083BF8895FDCFDC01FB01808191817E
:100B000011969C938E93B183A0830895DC01FB0121
:100B10008081918111969C938E93B183A0830895D7
:100B2000FC01A081B1818D919C911197918380836B
:100B3000CD010895CF93DF93AC01EB01E881F981FA
:100B4000A0E0B0E005C0DF01808191819C01F90146
:100B5000309719F420E030E00EC0E417F50799F75C
:100B600020813181109719F02D933C9302C0398375
:100B7000288321E030E0C901DF91CF910895609191
:100B80007101709172012091840030918500CB0138
:100B9000AA2797FDA095BA2FDC019927882740E066
:100BA00050E0822B932BA42BB52B80936C01909358
:100BB0006D01A0936E01B0936F01B09B1CC020919A
:100BC0008400309185006F5F7F4FCB01AA2797FD8E
:100BD000A095BA2FDC019927882740E050E0822BAE
:100BE000932BA42BB52B80936C0190936D01A09354
:100BF0006E01B0936F0108950FB607FE0CC0E0912F
:100C00005E01F0915F010280F381E02D62817381CA
:100C100084819581089560916C0170916D0180913E
:100C20006E0190916F010895DC016FB76078609359
:100C30007001F89420916A0130916B01E0E0F0E0DE
:100C400004C0F901808191819C012115310569F071
:100C50002A173B07B1F78D919C9111973097D9F4E2
:100C600090936B0180936A013AC0209168013091A2
:100C70006901E0E0F0E004C0F901808191819C010C
:100C80002115310581F02A173B07B1F78D919C9111
:100C90001197309719F09183808321C09093690157
:100CA000809368011CC0E0915C01F0915D0140916E
:100CB0005E0150915F0122C0E417F507E1F08281E7
:100CC00093818A179B07B9F4248135811A968D91F7
:100CD0009C911B972817390771F413821282809117
:100CE00058019091590111969C938E93B09359019C
:100CF000A093580105C00190F081E02D3097E1F6F6
:100D0000662309F078940895DF93CF9300D000D044
:100D100000D0CDB7DEB787EF91E027E632E0FC01E7
:100D2000709791838083409682179307C1F7109242
:100D300058021092570280E991E0909374018093D9
:100D400073014D969093910180939001CA971092F0
:100D5000AE011092AD0123EC32E03C832B83AC0159
:100D60004C5F5F4F5A8349831E821D82AD81BE81D5
:100D7000EDE1F0E0AE9FC001AF9F900DBE9F900DE2
:100D8000112406968D589E4F0E9406102D813E819B
:100D90004DE150E0249FF001259FF00D349FF00DB0
:100DA00011243696ED58FE4F8B819C81918B808B60
:100DB000938B828BA6ECBBE0B68BA58BE981FA8185
:100DC000118210822F5F3F4F3E832D83805A9F4FA9
:100DD0009C838B837D96FA83E9832330310531F63A
:100DE0001092CB011092CA011092CF011092CE0145
:100DF0001092CD011092CC01E1E6F0E080E8808312
:100E00001082109285001092840084E0809381000B
:100E100081E080936F0026960FB6F894DEBF0FBE78
:100E2000CDBFCF91DF910895DF93CF9300D0CDB7A1
:100E3000DEB79A83898380915E0190915F01069667
:100E40000E940610892B59F489819A8190935F0141
:100E500080935E01069661E070E00E9426100F907C
:100E60000F90CF91DF910895CF92DF92EF92FF9292
:100E70000F931F93CF93DF938C016B017A018FB790
:100E8000807880937001F894D801CD91DC912097FF
:100E900019F439C0C081D181EC81FD813097D1F73F
:100EA000E0915E01F0915F01CE17DF0731F48823F6
:100EB00009F07894CFEFDFEF54C0D80112968D91EE
:100EC0009C911397009729F0DC0115961C921E92B5
:100ED0001497D8011396FC93EE931297158304830D
:100EE000CE010E941407E0915E01F0915F018281C2
:100EF0009381892B41F480917001882309F07894C3
:100F0000C0E0D0E02EC080915E0190915F01F801B9
:100F10009183808380917001882309F07894C801BF
:100F2000B701F6010995EC018FB7807880937001C5
:100F3000F894D80111961C921E921296ED91FC9194
:100F40001397309749F013961C921E9212971582B0
:100F50001482CF010E94140780917001882309F048
:100F60007894CE01DF91CF911F910F91FF90EF9078
:100F7000DF90CF9008952F923F924F925F926F92A1
:100F80007F928F929F92AF92BF92CF92DF92EF9219
:100F9000FF920F931F93DF93CF9300D000D00F9257
:100FA000CDB7DEB76A837B838C839D8339014A0189
:100FB0002FB72078298320937001F894409058012E
:100FC000509059014114510441F1D2018D919C91ED
:100FD000119790935901809358011B961C930E937F
:100FE0001A971D96FC92EE921C971F96DC92CE9259
:100FF0001E972090710130907201209184003091F1
:101000008500B09921C0C101AA2797FDA095BA2FEC
:101010006C01BB24AA24C90129C087EB8093E50099
:1010200080E18093E6008FE08093E70080E8809382
:10103000E4008FEF8093EC008093ED008093EE004E
:1010400081E083BF8895FDCF8091840090918500D9
:101050000894211C311C9101442737FD4095542FE1
:101060000894210831086901BB24AA24A0E0B0E05B
:10107000A82AB92ACA2ADB2AB981BB2309F052C09F
:1010800080916C0190916D01A0916E01B0916F0102
:101090002A813B814C815D8157FF03C07C018D011A
:1010A00015C0EA80FB800C811D81E80EF91E0A1F25
:1010B0001B1FD601C5018E199F09A00BB10B181675
:1010C00019061A061B0614F486017501D201129640
:1010D000ED92FD920D931C93159780916C01909168
:1010E0006D01A0916E01B0916F0197FE07C09C0148
:1010F000AD01215030404040504868C06114710437
:101100008104910441F4EFEF6E2EEFEF7E2EEFEFAE
:101110008E2EEFE79E2EA4019301280F391F4A1F40
:101120005B1F54C0E0915E01F0915F012A813B8119
:101130004C815D8157FF08C00280F381E02D228140
:101140003381448155811CC00280F381E02D2281CE
:101150003381448155818A819B81AC81BD81280F77
:10116000391F4A1F5B1FD601C501821B930BA40BBD
:10117000B50B181619061A061B0614F4A6019501DC
:10118000D20112962D933D934D935C93159797FE44
:101190000CC0E0915E01F0915F010280F381E02DCF
:1011A000268137814085518511C061147104810405
:1011B000910441F47FEF672E7FEF772E7FEF872E2C
:1011C0007FE7972E260D371D481D591DF2012683F6
:1011D000378340875187D20112964D915D916D9171
:1011E0007C911597DB01CA018A199B09AC09BD09DD
:1011F000181619061A061B060CF049C0E0916A0180
:10120000F0916B0100E010E005C08F0180819181B9
:101210009C01F901309769F082819381A481B581A5
:10122000841B950BA60BB70B181619061A061B067E
:1012300064F7D201ED93FC930115110529F4509246
:101240006B0140926A0103C0F80151824082E09133
:101250006A01F0916B013097A1F0228133814481C2
:101260005581CA01BB2797FDB095AB2F28163906CB
:1012700041F4309389002093880080916F00826050
:1012800003C080916F008D7F80936F0067C0E091F5
:101290006801F091690160E070E005C0BF018081E4
:1012A00091819C01F9013097A1F0E680F7800085DB
:1012B0001185D20116962D913D914D915C91199712
:1012C000E21AF30A040B150B1E141F041006110674
:1012D0002CF7D201ED93FC936115710529F450921E
:1012E00069014092680103C0FB0151824082F9818B
:1012F000FF23A1F100915A0110915B010115110525
:1013000069F160915C0170915D01E0916801F0917B
:101310006901DB0112962D913C911397868197818B
:10132000A085B185F9012681378140855185821BD1
:10133000930BA40BB50BB7FF11C0D8018D919C91F5
:10134000119790935B0180935A016D937C93109356
:101350005D0100935C01C8010E9414078091700137
:10136000882309F07894C2010F900F900F900F908E
:101370000F90CF91DF911F910F91FF90EF90DF9031
:10138000CF90BF90AF909F908F907F906F905F9025
:101390004F903F902F900895CF93DF9381E08093FB
:1013A000700160915C0170915D01FB01C281D3818C
:1013B000A0916801B0916901109739F1E0915A014B
:1013C000F0915B01309709F1209781F016968D918D
:1013D0009D910D90BC91A02D2E813F81488559850E
:1013E000821B930BA40BB50BB7FF0FC080819181BB
:1013F00090935B0180935A0171836083F0935D0148
:10140000E0935C01CF010E941407DF91CF91089512
:101410001F920F920FB60F9211248F929F92AF924C
:10142000BF92CF92DF92EF92FF920F931F932F9371
:101430003F934F935F936F937F938F939F93AF935C
:10144000BF93CF93DF93EF93FF93C0907101D09040
:1014500072012091840030918500B0990AC0C601C4
:10146000AA2797FDA095BA2F8C01FF24EE24C9016D
:1014700012C080918400909185000894C11CD11CF9
:101480009601442737FD4095542F0894C108D10890
:101490008901FF24EE24A0E0B0E0E82AF92A0A2B13
:1014A0001B2BB0906801A0906901C0916A01D09196
:1014B0006B0130C0988089808B2D9A2D9C01F90199
:1014C00060E070E005C0BF01808191819C01F9015D
:1014D000309789F086819781A085B1852E813F81E3
:1014E00048855985821B930BA40BB50B181619065A
:1014F0001A061B0644F7F983E8836115710519F490
:10150000BC2EAD2E03C0FB01D183C083892D982D45
:101510009C01E9012097A9F02A813B814C815D81E2
:10152000DA01C9018E199F09A00BB10BB7FDC2CF1B
:1015300034C0309389002093880080916F008260CE
:101540000BC0B0926801A092690110926B011092D9
:101550006A0180916F008D7F80936F000E94CC099B
:10156000FF91EF91DF91CF91BF91AF919F918F91BB
:101570007F916F915F914F913F912F911F910F91AB
:10158000FF90EF90DF90CF90BF90AF909F908F90A3
:101590000F900FBE0F901F901895B0926801A09207
:1015A0006901C0936A01D0936B01CA01BB2797FD03
:1015B000B095AB2FC816D90661F6BBCF1F920F921C
:1015C0000FB60F9211248F929F92AF92BF92CF923B
:1015D000DF92EF92FF920F931F932F933F934F93BE
:1015E0005F936F937F938F939F93AF93BF93CF93AB
:1015F000DF93EF93FF93C0907101D0907201089434
:10160000C11CD11CD0927201C09271012091840042
:1016100030918500B0990AC0C601AA2797FDA09510
:10162000BA2F8C01FF24EE24C90112C080918400DE
:10163000909185000894C11CD11C9601442737FD68
:101640004095542F0894C108D1088901FF24EE2445
:10165000A0E0B0E0E82AF92A0A2B1B2BB090680121
:10166000A0906901C0916A01D0916B0130C098804F
:1016700089808B2D9A2D9C01F90160E070E005C0F6
:10168000BF01808191819C01F901309789F08681A9
:101690009781A085B1852E813F8148855985821B20
:1016A000930BA40BB50B181619061A061B0644F764
:1016B000F983E8836115710519F4BC2EAD2E03C0C2
:1016C000FB01D183C083892D982D9C01E9012097CE
:1016D000A9F02A813B814C815D81DA01C9018E1913
:1016E0009F09A00BB10BB7FDC2CF34C03093890066
:1016F0002093880080916F0082600BC0B0926801D7
:10170000A092690110926B0110926A0180916F00A2
:101710008D7F80936F000E94CC09FF91EF91DF9144
:10172000CF91BF91AF919F918F917F916F915F9179
:101730004F913F912F911F910F91FF90EF90DF906C
:10174000CF90BF90AF909F908F900F900FBE0F9053
:101750001F901895B0926801A0926901D0936B0117
:10176000C0936A01CA01BB2797FDB095AB2FC8167D
:10177000D90661F6BBCF0E94CC0980917001882305
:1017800009F0789481E083BF8895FDCFCF93DF93F4
:10179000E0915E01F0915F01C0916801D091690113
:1017A000209769F0888199819093690180936801FD
:1017B000D383C283809170018823C1F418C087EB62
:1017C0008093E50080E18093E6008FE08093E7005E
:1017D00080E88093E4008FEF8093EC008093ED002D
:1017E0008093EE0081E083BF8895FDCF78946C856F
:1017F0007D854E855F858A859B850E9434078FB7DE
:10180000807880937001F8948091580190915901EB
:1018100099838883D0935901C093580160915C01EA
:1018200070915D01FB01C081D1812A813B81E091F2
:101830006801F09169013097B9F02115310509F47B
:10184000A7CF86819781A085B185F901268137814F
:1018500040855185821B930BA40BB50B18161906F6
:101860001A061B060CF094CFD0935D01C0935C0167
:1018700080915A0190915B01FB0191838083709369
:101880005B0160935A0102C0C081D181EC81FD816E
:101890003097D1F7CE010E9414077ACF5058BB275A
:1018A000AA270ED04DC13ED130F043D120F031F403
:1018B0009F3F11F41EF433C10EF4E095E7FB29C1FC
:1018C000E92F4FD180F3BA17620773078407950792
:1018D00018F071F49EF567C10EF4E0950B2EBA2F47
:1018E000A02D0B01B90190010C01CA01A001112426
:1018F000FF27591B99F0593F50F4503E68F11A16D2
:10190000F040A22F232F342F4427585FF3CF469562
:1019100037952795A795F0405395C9F77EF41F1684
:10192000BA0B620B730B840BBAF09150A1F0FF0F4E
:10193000BB1F661F771F881FC2F70EC0BA0F621F3A
:10194000731F841F48F4879577956795B795F7952A
:101950009E3F08F0B3CF9395880F08F09927EE0FBC
:101960009795879508950CD0EBC0E3D040F0DAD07E
:1019700030F021F45F3F19F0CCC0511115C1CFC038
:10198000F0D098F39923C9F35523B1F3951B550B68
:10199000BB27AA2762177307840738F09F5F5F4F42
:1019A000220F331F441FAA1FA9F333D00E2E3AF083
:1019B000E0E830D091505040E695001CCAF729D09D
:1019C000FE2F27D0660F771F881FBB1F26173707EC
:1019D0004807AB07B0E809F0BB0B802DBF01FF271C
:1019E00093585F4F2AF09E3F510568F092C0DCC0CB
:1019F0005F3FECF3983EDCF3869577956795B79556
:101A0000F7959F5FC9F7880F911D9695879597F970
:101A10000895E1E0660F771F881FBB1F62177307E9
:101A20008407BA0720F0621B730B840BBA0BEE1FFE
:101A300088F7E095089504D06894B111B5C0089571
:101A400098D088F09F5790F0B92F9927B751A0F000
:101A5000D1F0660F771F881F991F1AF0BA95C9F742
:101A600012C0B13081F09FD0B1E008959CC0672FC3
:101A7000782F8827B85F39F0B93FCCF386957795F2
:101A80006795B395D9F73EF49095809570956195DB
:101A90007F4F8F4F9F4F0895E89409C097FB3EF406
:101AA00090958095709561957F4F8F4F9F4F9923AB
:101AB000A9F0F92F96E9BB279395F6958795779529
:101AC0006795B795F111F8CFFAF4BB0F11F460FFE9
:101AD0001BC06F5F7F4F8F4F9F4F16C0882311F041
:101AE00096E911C0772321F09EE8872F762F05C055
:101AF000662371F096E8862F70E060E02AF09A95F0
:101B0000660F771F881FDAF7880F9695879597F9E4
:101B1000089597F99F6780E870E060E008959FEF6F
:101B200080EC089500240A94161617061806090674
:101B3000089500240A941216130614060506089543
:101B4000092E0394000C11F4882352F0BB0F40F4CB
:101B5000BF2B11F460FF04C06F5F7F4F8F4F9F4F0B
:101B6000089557FD9058440F551F59F05F3F71F08D
:101B70004795880F97FB991F61F09F3F79F08795F4
:101B80000895121613061406551FF2CF4695F1DF7D
:101B900008C0161617061806991FF1CF869571050D
:101BA000610508940895E894BB2766277727CB0141
:101BB00097F908950BD0C4CFB5DF28F0BADF18F03D
:101BC000952309F0A6CFABCF1124EECFCADFA0F347
:101BD000959FD1F3950F50E0551F629FF001729FC2
:101BE000BB27F00DB11D639FAA27F00DB11DAA1FE1
:101BF000649F6627B00DA11D661F829F2227B00D2E
:101C0000A11D621F739FB00DA11D621F839FA00DB8
:101C1000611D221F749F3327A00D611D231F849F08
:101C2000600D211D822F762F6A2F11249F5750405F
:101C30008AF0E1F088234AF0EE0FFF1FBB1F661FFA
:101C4000771F881F91505040A9F79E3F510570F0B3
:101C500060CFAACF5F3FECF3983EDCF38695779593
:101C60006795B795F795E7959F5FC1F7FE2B880FAE
:101C7000911D9695879597F90895FA01EE0FFF1F2C
:101C800030962105310599F16115710561F48038AF
:101C9000BFE39B0749F168949038810561F0803873
:101CA000BFEF9B0741F0992342F5FF3FE105310566
:101CB000210511F1E8940894E795D901AA2329F4A4
:101CC000AB2FBE2FF85FD0F310C0FF5F70F4A69566
:101CD000E0F7F73950F019F0FF3A38F49F779F9307
:101CE0000CD00F9007FC905808953EF018CF60E09C
:101CF00070E080E89FE308954FE79F775F934F93ED
:101D00003F932F939ED02F913F914F915F9152DF40
:101D100005C019F40EF0FDCE46CF01CF2ADFC8F37F
:101D20009638C0F707F80F92E8942BE33AEA48EBAD
:101D30005FE74EDF0F920F920F924DB75EB70F9293
:101D4000C0D0ECE5F0E016D04F915F91EF91FF919C
:101D5000E595EE1FFF1F49F0FE57E0684427EE0FA0
:101D6000441FFA95E1F74195550B32D00F9007FECD
:101D700026C00895DF93CF931F930F93FF92EF92A6
:101D8000DF927B018C01689405C0DA2EEF011EDF23
:101D9000FE01E894A5912591359145915591AEF3B9
:101DA000EF018EDDFE019701A801DA9479F7DF904B
:101DB000EF90FF900F911F91CF91DF9108959B01BC
:101DC000AC0160E070E080E89FE3CDCDA2CEACC076
:101DD000D0DEE8F39923D9F3940F511DBBF3915052
:101DE000504094F059F0882332F0660F771F881F17
:101DF00091505040C1F79E3F510544F7880F911D07
:101E00009695879597F908955F3FACF0983E9CF0C2
:101E1000BB27869577956795B79508F4B16093953C
:101E2000C1F7BB0F58F711F460FFE8CF6F5F7F4F2A
:101E30008F4F9F4FE3CFB8CE0EF076C070CE689430
:101E400068CE97DEC8F39923D1F3C6F3DF93CF931F
:101E50001F930F93FF92C92FDD2788232AF0219724
:101E6000660F771F881FDAF720E030E040E85FEB6D
:101E70009FE3883920F0803E30F021968F770FDD88
:101E8000E4E8F0E003C00BDDE1EBF0E073DF8B0191
:101E9000BE01EC01FB2E6F5771097595771F880BFA
:101EA000990BFCDD28E132E741E35FE38FDEAF2DE4
:101EB0009801AE01FF900F911F91CF91DF9100DD4E
:101EC0003FCEFA01DC01AA0FBB1F9B01AC01BF573B
:101ED00028F422273327442750781FC0B75188F4AD
:101EE000AB2F0024469537952795011CA395D2F377
:101EF000002069F0220F331F441FB395DAF30DD091
:101F0000CDCC61307105A0E88A07B94630F49B0159
:101F1000AC016627772788279078309621F02083B8
:101F200031834283538308959F3F31F0915020F4D1
:101F3000879577956795B795880F911D96958795A5
:101F400097F9089597FB092E07260AD077FD04D04C
:101F500027D006D000201AF4709561957F4F089520
:101F6000F6F7909581959F4F089597FB092E0526CA
:101F70000ED057FD04D028D00AD0001C38F450955C
:101F80004095309521953F4F4F4F5F4F0895F6F79D
:101F900090958095709561957F4F8F4F9F4F0895D5
:101FA000AA1BBB1B51E107C0AA1FBB1FA617B7077F
:101FB00010F0A61BB70B881F991F5A95A9F780959B
:101FC0009095BC01CD010895A1E21A2EAA1BBB1B5E
:101FD000FD010DC0AA1FBB1FEE1FFF1FA217B307F5
:101FE000E407F50720F0A21BB30BE40BF50B661F0B
:101FF000771F881F991F1A9469F7609570958095CF
:1020000090959B01AC01BD01CF010895DC012D929B
:102010003D924D925D926D927D928D929D92AD9288
:10202000BD92CD92DD92ED92FD920D931D93CD93D5
:10203000DD93FF91EF918DB78D938EB78D938FB711
:102040008D93ED93FD93882799270994DC01CB01AB
:1020500081309105811D2D903D904D905D906D904A
:102060007D908D909D90AD90BD90CD90DD90ED9048
:10207000FD900D911D91CD91DD91ED91FD910D9012
:10208000F894FEBF0FBEEDBFED91FD910994F89459
:02209000FFCF80
:102092000100050005000100000001000100000030
:1020A200010001000E000100010001000B0001000F
:1020B200000005000B000000010004000B000100FD
:1020C200010004000F0001000100010001000000F6
:1020D200010005000F000100010005000B000100D6
:1020E2000000000064012800E7017301CA01CA016F
:00000001FF
