:100000000C946F000C948C000C948C000C948C005D
:100010000C948C000C948C000C948C000C948C0030
:100020000C948C000C948C000C948C000C948C0020
:100030000C948C000C948C000C948C000C948C0010
:100040000C948C000C948C000C948C000C948C0000
:100050000C948C000C948C000C948C00076342363A
:10006000B79BD8A71A39685618AEBAAB558C1D3C49
:10007000B7CC5763BD6DEDFD753EF6177231BF000D
:100080000000803F08000000BE922449123EABAA47
:10009000AA2ABECDCCCC4C3E00000080BEABAAAAA2
:1000A000AA3E00000000BF000000803F00000000EA
:1000B00000084178D3BB4387D1133D190E3CC3BD23
:1000C0004282AD2B3E68EC8276BED98FE1A93E4CD0
:1000D00080EFFFBE01C4FF7F3F000000000011243D
:1000E0001FBECFEFD4E0DEBFCDBF11E0A0E0B1E096
:1000F000E6EBFEE002C005900D92A035B107D9F7FE
:1001000011E0A0E5B1E001C01D92A235B107E1F711
:100110000E941F030C9459070C940000E82F01C0A3
:10012000EA50EA30ECF761157105A9F48091EE0010
:100130008F708093EE008091F3008F708093F300B6
:100140008091F8008F708093F8008091FD008F708F
:100150008093FD0048C061307105A9F48091EE00E4
:10016000807F8093EE008091F300807F8093F30086
:100170008091F800807F8093F8008091FD00807F5F
:100180008093FD0048C062307105A9F48091ED00B4
:100190008F708093ED008091F2008F708093F20059
:1001A0008091F7008F708093F7008091FC008F7032
:1001B0008093FC0048C063307105A9F48091ED0084
:1001C000807F8093ED008091F200807F8093F20029
:1001D0008091F700807F8093F7008091FC00807F02
:1001E0008093FC00FDC064307105A9F48091EC009F
:1001F0008F708093EC008091F1008F708093F100FC
:100200008091F6008F708093F6008091FB008F70D4
:100210008093FB0010C165307105A9F48091EC005A
:10022000807F8093EC008091F100807F8093F100CB
:100230008091F600807F8093F6008091FB00807FA4
:100240008093FB003BC16230710509F486C06330C6
:10025000710544F46115710591F06130710509F083
:1002600057C150C06430710509F4E5C064307105B0
:100270000CF4B6C06530710509F04AC11FC1209168
:10028000EE00FF27E7FDF09543E0EE0FFF1F4A95D4
:10029000E1F7AF0140505F4FDA018D919C9134E05E
:1002A000880F991F3A95E1F7282B2093EE002091B3
:1002B000F300DF01AE5FBE4F8D919C91B4E0880FDB
:1002C000991FBA95E1F7282B2093F3002091F800AD
:1002D000EC5FFE4F80819181F4E0880F991FFA95C1
:1002E000E1F7282B2093F8002091FD00FA01868188
:1002F0009781E4E0880F991FEA95E1F7282B209376
:10030000FD0008959091EE00FF27E7FDF09573E062
:10031000EE0FFF1F7A95E1F79F0120503F4FD90163
:100320008C91982B9093EE009091F300DF01AE5FDB
:10033000BE4F8C91982B9093F3009091F800EC5F56
:10034000FE4F8081982B9093F8008091FD00F90179
:100350009681892B8093FD0008952091ED00FF2761
:10036000E7FDF09543E0EE0FFF1F4A95E1F7AF017F
:1003700040505F4FDA018D919C9134E0880F991FB6
:100380003A95E1F7282B2093ED002091F200DF0150
:10039000AE5FBE4F8D919C91B4E0880F991FBA95C6
:1003A000E1F7282B2093F2002091F700EC5FFE4F3D
:1003B00080819181F4E0880F991FFA95E1F7282B4D
:1003C0002093F7002091FC00FA0186819781E4E0F8
:1003D000880F991FEA95E1F7282B2093FC000895D8
:1003E0009091ED00FF27E7FDF09573E0EE0FFF1F02
:1003F0007A95E1F79F0120503F4FD9018C91982BBE
:100400009093ED009091F200DF01AE5FBE4F8C91B2
:10041000982B9093F2009091F700EC5FFE4F808153
:10042000982B9093F7008091FC00F9019681892B1D
:100430008093FC0008952091EC00FF27E7FDF095E4
:1004400043E0EE0FFF1F4A95E1F7AF0140505F4FC9
:10045000DA018D919C9134E0880F991F3A95E1F76C
:10046000282B2093EC002091F100DF01AE5FBE4FFE
:100470008D919C91B4E0880F991FBA95E1F7282BD4
:100480002093F1002091F600EC5FFE4F8081918176
:1004900074E0880F991F7A95E1F7282B2093F600D6
:1004A0002091FB00FA018681978164E0880F991FF3
:1004B0006A95E1F7282B2093FB0008959091EC00BA
:1004C000FF27E7FDF09553E0EE0FFF1F5A95E1F788
:1004D0009F0120503F4FD9018C91982B9093EC00B5
:1004E0009091F100DF01AE5FBE4F8C91982B9093FD
:1004F000F1009091F600EC5FFE4F8081982B909375
:10050000F6008091FB00F9019681892B8093FB0016
:10051000089581E090E00895809184009091850095
:1005200080509048D0F020E030E0809150019091D0
:100530005101892B11F421E030E0309351012093D7
:100540005001232B19F41092F40003C081E0809332
:10055000F400109285001092840008951F9B04C03F
:100560008091F9008E7F03C08091F90081608093B3
:10057000F90008956F927F928F929F92AF92BF92EF
:10058000CF92DF92EF92FF920F931F93CF93DF935F
:10059000C5E0D0E00E94C8043B014C01BE018827A1
:1005A00077FD8095982F0E94C8047B018C0160E044
:1005B00070E080E291E4A80197010E94B7059B01D9
:1005C000AC01C401B3010E942D040E9495045B019B
:1005D0006C01862FBE010E948E0060E070E080E218
:1005E00091E4A80197010E94B7057B018C01B50138
:1005F000882777FD8095982F0E94C804A80197014D
:100600000E9454059B01AC01C401B3010E94C803C0
:100610000E94950421972FEFCF3FD20709F0BACF60
:10062000DF91CF911F910F91FF90EF90DF90CF90CE
:10063000BF90AF909F908F907F906F90089580E8CB
:100640008093E40087EB8093E50084E08093810051
:100650002F9A64E070E080E090E00E94BA0280E0AF
:1006600090E008959F92AF92BF92CF92DF92EF9267
:10067000FF920F931F9362E0E62EF12C012D112DB6
:100680009924939455C08091840090918500805066
:100690009048C8F060E070E0809150019091510165
:1006A000892B11F461E070E0709351016093500167
:1006B000672B19F41092F40002C09092F40010928B
:1006C0008500109284001F9B04C08091F9008E7FEA
:1006D00003C08091F90081608093F9000894A11C07
:1006E000B11CC11CD11CC801B7010E941C076115B7
:1006F00071058105910571F0C801B7010E94BA0228
:10070000D601C5019501AD01AE14BF04C006D106E6
:100710000CF4B9CF0894E11CF11C011D111D8FE3ED
:10072000E81682E4F8068FE0080780E0180731F049
:1007300052E0A52EB12CC12CD12CE2CF1F910F91EC
:10074000FF90EF90DF90CF90BF90AF909F90089573
:10075000EF92FF920F931F9372E0E72EF12C012D81
:10076000112DC801B7010E94BA020894E11CF11CC6
:10077000011D111D8FE3E81682E4F8068FE00807DB
:1007800080E0180771F71F910F91FF90EF90089587
:100790005058BB27AA270ED04DC13ED130F043D1CF
:1007A00020F031F49F3F11F41EF433C10EF4E095B4
:1007B000E7FB29C1E92F4FD180F3BA17620773070E
:1007C0008407950718F071F49EF567C10EF4E09563
:1007D0000B2EBA2FA02D0B01B90190010C01CA01FB
:1007E000A0011124FF27591B99F0593F50F4503EA6
:1007F00068F11A16F040A22F232F342F4427585F98
:10080000F3CF469537952795A795F0405395C9F7AF
:100810007EF41F16BA0B620B730B840BBAF0915067
:10082000A1F0FF0FBB1F661F771F881FC2F70EC006
:10083000BA0F621F731F841F48F4879577956795D9
:10084000B795F7959E3F08F0B3CF9395880F08F0C2
:100850009927EE0F9795879508950CD0EBC0E3D0BC
:1008600040F0DAD030F021F45F3F19F0CCC05111E4
:1008700015C1CFC0F0D098F39923C9F35523B1F334
:10088000951B550BBB27AA2762177307840738F0FF
:100890009F5F5F4F220F331F441FAA1FA9F333D05E
:1008A0000E2E3AF0E0E830D091505040E695001C12
:1008B000CAF729D0FE2F27D0660F771F881FBB1FCE
:1008C000261737074807AB07B0E809F0BB0B802DA8
:1008D000BF01FF2793585F4F2AF09E3F510568F0F4
:1008E00092C0DCC05F3FECF3983EDCF386957795D1
:1008F0006795B795F7959F5FC9F7880F911D9695F6
:10090000879597F90895E1E0660F771F881FBB1F51
:10091000621773078407BA0720F0621B730B840BFE
:10092000BA0BEE1F88F7E095089504D06894B111D2
:10093000B5C0089598D088F09F5790F0B92F9927A7
:10094000B751A0F0D1F0660F771F881F991F1AF0DA
:10095000BA95C9F712C0B13081F09FD0B1E00895C7
:100960009CC0672F782F8827B85F39F0B93FCCF348
:10097000869577956795B395D9F73EF490958095D0
:10098000709561957F4F8F4F9F4F0895E89409C0F0
:1009900097FB3EF490958095709561957F4F8F4FB2
:1009A0009F4F9923A9F0F92F96E9BB279395F695C8
:1009B000879577956795B795F111F8CFFAF4BB0F46
:1009C00011F460FF1BC06F5F7F4F8F4F9F4F16C0AA
:1009D000882311F096E911C0772321F09EE8872F34
:1009E000762F05C0662371F096E8862F70E060E0F0
:1009F0002AF09A95660F771F881FDAF7880F969569
:100A0000879597F9089597F99F6780E870E060E00F
:100A100008959FEF80EC089500240A941616170697
:100A200018060906089500240A94121613061406DF
:100A300005060895092E0394000C11F4882352F042
:100A4000BB0F40F4BF2B11F460FF04C06F5F7F4FFA
:100A50008F4F9F4F089557FD9058440F551F59F0E1
:100A60005F3F71F04795880F97FB991F61F09F3F9B
:100A700079F087950895121613061406551FF2CFC4
:100A80004695F1DF08C0161617061806991FF1CF14
:100A900086957105610508940895E894BB2766273B
:100AA0007727CB0197F908950BD0C4CFB5DF28F095
:100AB000BADF18F0952309F0A6CFABCF1124EECF03
:100AC000CADFA0F3959FD1F3950F50E0551F629FA9
:100AD000F001729FBB27F00DB11D639FAA27F00D97
:100AE000B11DAA1F649F6627B00DA11D661F829FBE
:100AF0002227B00DA11D621F739FB00DA11D621FA3
:100B0000839FA00D611D221F749F3327A00D611DBF
:100B1000231F849F600D211D822F762F6A2F1124A1
:100B20009F5750408AF0E1F088234AF0EE0FFF1FF4
:100B3000BB1F661F771F881F91505040A9F79E3F2B
:100B4000510570F060CFAACF5F3FECF3983EDCF325
:100B5000869577956795B795F795E7959F5FC1F768
:100B6000FE2B880F911D9695879597F90895FA01A8
:100B7000EE0FFF1F30962105310599F161157105C2
:100B800061F48038BFE39B0749F168949038810590
:100B900061F08038BFEF9B0741F0992342F5FF3F9A
:100BA000E1053105210511F1E8940894E795D90193
:100BB000AA2329F4AB2FBE2FF85FD0F310C0FF5F3C
:100BC00070F4A695E0F7F73950F019F0FF3A38F4D1
:100BD0009F779F930CD00F9007FC905808953EF09C
:100BE00018CF60E070E080E89FE308954FE79F77BB
:100BF0005F934F933F932F939ED02F913F914F91AF
:100C00005F9152DF05C019F40EF0FDCE46CF01CF43
:100C10002ADFC8F39638C0F707F80F92E8942BE361
:100C20003AEA48EB5FE74EDF0F920F920F924DB713
:100C30005EB70F92C0D0ECE5F0E016D04F915F9117
:100C4000EF91FF91E595EE1FFF1F49F0FE57E06819
:100C50004427EE0F441FFA95E1F74195550B32D02A
:100C60000F9007FE26C00895DF93CF931F930F9335
:100C7000FF92EF92DF927B018C01689405C0DA2E1F
:100C8000EF011EDFFE01E894A59125913591459174
:100C90005591AEF3EF018EDDFE019701A801DA94C4
:100CA00079F7DF90EF90FF900F911F91CF91DF9137
:100CB00008959B01AC0160E070E080E89FE3CDCD3A
:100CC000A2CEACC0D0DEE8F39923D9F3940F511D26
:100CD000BBF39150504094F059F0882332F0660FE6
:100CE000771F881F91505040C1F79E3F510544F730
:100CF000880F911D9695879597F908955F3FACF001
:100D0000983E9CF0BB27869577956795B79508F434
:100D1000B1609395C1F7BB0F58F711F460FFE8CFAE
:100D20006F5F7F4F8F4F9F4FE3CFB8CE0EF076C0EF
:100D300070CE689468CE97DEC8F39923D1F3C6F3DA
:100D4000DF93CF931F930F93FF92C92FDD27882343
:100D50002AF02197660F771F881FDAF720E030E02E
:100D600040E85FEB9FE3883920F0803E30F0219629
:100D70008F770FDDE4E8F0E003C00BDDE1EBF0E09E
:100D800073DF8B01BE01EC01FB2E6F577109759566
:100D9000771F880B990BFCDD28E132E741E35FE325
:100DA0008FDEAF2D9801AE01FF900F911F91CF9173
:100DB000DF9100DD3FCEFA01DC01AA0FBB1F9B01D2
:100DC000AC01BF5728F422273327442750781FC08F
:100DD000B75188F4AB2F0024469537952795011C11
:100DE000A395D2F3002069F0220F331F441FB3955F
:100DF000DAF30DD0CDCC61307105A0E88A07B94691
:100E000030F49B01AC0166277727882790783096CD
:100E100021F0208331834283538308959F3F31F033
:100E2000915020F4879577956795B795880F911D18
:100E30009695879597F9089597FB092E05260ED06C
:100E400057FD04D014D00AD0001C38F450954095BA
:100E5000309521953F4F4F4F5F4F0895F6F790958E
:100E60008095709561957F4F8F4F9F4F0895A1E2B8
:100E70001A2EAA1BBB1BFD010DC0AA1FBB1FEE1F14
:100E8000FF1FA217B307E407F50720F0A21BB30B5F
:100E9000E40BF50B661F771F881F991F1A9469F7DB
:100EA00060957095809590959B01AC01BD01CF0137
:060EB0000895F894FFCF45
:100EB600010005000500010000000100010000001E
:100EC600010001000E000100010001000B000100FD
:100ED600000005000B000000010004000B000100EB
:100EE600010004000F0001000100010001000000E4
:100EF600010005000F000100010005000B000100C4
:00000001FF
